:020000040800F2
:100000000050002059190008D5180008DB18000816
:10001000E1180008E7180008ED18000800000000CB
:10002000000000000000000000000000F3180008BD
:10003000FF180008000000000B190008171900083D
:10004000A1190008A1190008A1190008A1190008A8
:10005000A1190008A1190008A1190008A119000898
:10006000A1190008A1190008A11900082519000804
:10007000A1190008A1190008A1190008A119000878
:10008000A1190008A119000839190008A1190008D0
:10009000A1190008A1190008A1190008A119000858
:1000A000A1190008A1190008A1190008A119000848
:1000B000A1190008A1190008A1190008A119000838
:1000C000A1190008A1190008A1190008A119000828
:1000D000A1190008A1190008A1190008A119000818
:1000E000A1190008A1190008A119000800000000CA
:1000F0000000000000000000000000000000000000
:0C01000000000000000000005FF808F1A3
:1001100010B5054C237833B9044B13B10448AFF341
:1001200000800123237010BD0C000020000000009F
:100130007842000808B5034B1BB103490348AFF3ED
:10014000008008BD00000000100000207842000878
:1001500081F0004102E000BF83F0004330B54FEA78
:1001600041044FEA430594EA050F08BF90EA020FE5
:100170001FBF54EA000C55EA020C7FEA645C7FEA78
:10018000655C00F0E2804FEA5454D4EB5555B8BF9B
:100190006D420CDD2C4480EA020281EA030382EA0C
:1001A000000083EA010180EA020281EA0303362D9E
:1001B00088BF30BD11F0004F4FEA01314FF4801C71
:1001C0004CEA113102D0404261EB410113F0004F83
:1001D0004FEA03334CEA133302D0524263EB43033A
:1001E00094EA050F00F0A780A4F10104D5F1200ED8
:1001F0000DDB02FA0EFC22FA05F2801841F1000133
:1002000003FA0EF2801843FA05F359410EE0A5F106
:1002100020050EF1200E012A03FA0EFC28BF4CF037
:10022000020C43FA05F3C01851EBE37101F00045ED
:1002300007D54FF0000EDCF1000C7EEB00006EEBFA
:100240000101B1F5801F1BD3B1F5001F0CD3490884
:100250005FEA30004FEA3C0C04F101044FEA4452DB
:1002600012F5800F80F09A80BCF1004F08BF5FEA62
:10027000500C50F1000041EB045141EA050130BD42
:100280005FEA4C0C404141EB0101013C28BFB1F554
:10029000801FE9D291F0000F04BF01460020B1FA9F
:1002A00081F308BF2033A3F10B03B3F120020CDA72
:1002B0000C3208DD02F1140CC2F10C0201FA0CF050
:1002C00021FA02F10CE002F11402D8BFC2F1200CB5
:1002D00001FA02F120FA0CFCDCBF41EA0C0190406B
:1002E000E41AA2BF01EB0451294330BD6FEA0404B4
:1002F0001F3C1CDA0C340EDC04F11404C4F120029F
:1003000020FA04F001FA02F340EA030021FA04F3B0
:1003100045EA030130BDC4F10C04C4F1200220FA07
:1003200002F001FA04F340EA0300294630BD21FA45
:1003300004F0294630BD94F0000F83F4801306BF0B
:1003400081F480110134013D4EE77FEA645C18BFFF
:100350007FEA655C29D094EA050F08BF90EA020F96
:1003600005D054EA000C04BF1946104630BD91EA8E
:10037000030F1EBF0021002030BD5FEA545C05D191
:100380004000494128BF41F0004130BD14F58004D0
:100390003CBF01F5801130BD01F0004545F0FE4144
:1003A00041F470014FF0000030BD7FEA645C1ABF79
:1003B000194610467FEA655C1CBF0B46024650EAB0
:1003C000013406BF52EA033591EA030F41F40021DC
:1003D00030BD00BF90F0000F04BF0021704730B562
:1003E0004FF4806404F132044FF000054FF0000137
:1003F00050E700BF90F0000F04BF0021704730B5F8
:100400004FF4806404F1320410F0004548BF4042CC
:100410004FF000013EE700BF42004FEAE2014FEA21
:1004200031014FEA02701FBF12F07F4393F07F4FFC
:1004300081F06051704732F07F4208BF704793F0FF
:100440007F4F04BF41F40021704730B54FF4607412
:1004500001F0004521F000411CE700BF50EA010215
:1004600008BF704730B54FF000050AE050EA0102BE
:1004700008BF704730B511F0004502D5404261EB2E
:1004800041014FF4806404F132045FEA915C3FF46F
:10049000D8AE4FF003025FEADC0C18BF03325FEA0C
:1004A000DC0C18BF033202EBDC02C2F1200300FABD
:1004B00003FC20FA02F001FA03FE40EA0E0021FAE2
:1004C00002F11444BDE600BF70B54FF0FF0C4CF4D0
:1004D000E06C1CEA11541DBF1CEA135594EA0C0F82
:1004E00095EA0C0F00F0DEF82C4481EA030621EABD
:1004F0004C5123EA4C5350EA013518BF52EA0335F8
:1005000041F4801143F4801338D0A0FB02CE4FF0A9
:100510000005E1FB02E506F00042E0FB03E54FF0D9
:100520000006E1FB03569CF0000F18BF4EF0010ED1
:10053000A4F1FF04B6F5007F64F5407404D25FEACD
:100540004E0E6D4146EB060642EAC62141EA555180
:100550004FEAC52040EA5E504FEACE2EB4F1FD0CC2
:1005600088BFBCF5E06F1ED8BEF1004F08BF5FEA40
:10057000500E50F1000041EB045170BD06F00046F2
:1005800046EA010140EA020081EA0301B4EB5C049F
:10059000C2BFD4EB0C0541EA045170BD41F4801197
:1005A0004FF0000E013C00F3AB8014F1360FDEBFBC
:1005B000002001F0004170BDC4F10004203C35DA98
:1005C0000C341BDC04F11404C4F1200500FA05F31B
:1005D00020FA04F001FA05F240EA020001F00042BC
:1005E00021F0004110EBD37021FA04F642EB060132
:1005F0005EEA430E08BF20EAD37070BDC4F10C045C
:10060000C4F1200500FA04F320FA05F001FA04F21F
:1006100040EA020001F0004110EBD37041F100010B
:100620005EEA430E08BF20EAD37070BDC4F1200516
:1006300000FA05F24EEA020E20FA04F301FA05F27E
:1006400043EA020321FA04F001F0004121FA04F226
:1006500020EA020000EBD3705EEA430E08BF20EAF6
:10066000D37070BD94F0000F0FD101F00046400030
:1006700041EB010111F4801F08BF013CF7D041EAB2
:10068000060195F0000F18BF704703F000465200B6
:1006900043EB030313F4801F08BF013DF7D043EA87
:1006A0000603704794EA0C0F0CEA135518BF95EA3D
:1006B0000C0F0CD050EA410618BF52EA4306D1D1C4
:1006C00081EA030101F000414FF0000070BD50EAE3
:1006D000410606BF1046194652EA430619D094EA6D
:1006E0000C0F02D150EA013613D195EA0C0F05D157
:1006F00052EA03361CBF104619460AD181EA0301AB
:1007000001F0004141F0FE4141F470014FF0000062
:1007100070BD41F0FE4141F4780170BD70B54FF0FD
:10072000FF0C4CF4E06C1CEA11541DBF1CEA13557D
:1007300094EA0C0F95EA0C0F00F0A7F8A4EB05045F
:1007400081EA030E52EA03354FEA013100F0888056
:100750004FEA03334FF0805545EA131343EA12631F
:100760004FEA022245EA111545EA10654FEA0026D4
:100770000EF000419D4208BF964244F1FD0404F58D
:10078000407402D25B084FEA3202B61A65EB0305E9
:100790005B084FEA32024FF480104FF4002CB6EBA6
:1007A000020E75EB030E22BFB61A754640EA0C0026
:1007B0005B084FEA3202B6EB020E75EB030E22BF66
:1007C000B61A754640EA5C005B084FEA3202B6EBA7
:1007D000020E75EB030E22BFB61A754640EA9C0066
:1007E0005B084FEA3202B6EB020E75EB030E22BF36
:1007F000B61A754640EADC0055EA060E18D04FEAF4
:10080000051545EA16754FEA06164FEAC30343EA93
:1008100052734FEAC2025FEA1C1CC0D111F4801F60
:100820000BD141EA00014FF000004FF0004CB6E759
:1008300011F4801F04BF01430020B4F1FD0C88BFF8
:10084000BCF5E06F3FF6AFAEB5EB030C04BFB6EB03
:10085000020C5FEA500C50F1000041EB045170BDF6
:100860000EF0004E4EEA113114EB5C04C2BFD4EB23
:100870000C0541EA045170BD41F480114FF0000EA7
:10088000013C90E645EA060E8DE60CEA135594EA23
:100890000C0F08BF95EA0C0F3FF43BAF94EA0C0F26
:1008A0000AD150EA01347FF434AF95EA0C0F7FF49B
:1008B00025AF104619462CE795EA0C0F06D152EAEF
:1008C00003353FF4FDAE1046194622E750EA4106D3
:1008D00018BF52EA43067FF4C5AE50EA41047FF4E4
:1008E0000DAF52EA43057FF4EBAE12E74FEA410247
:1008F000B2F1E04324BFB3F5001CDCF1FE5C0DD97E
:1009000001F0004C4FEAC0024CEA5070B2F1004FC7
:1009100040EB830008BF20F00100704711F0804FCA
:1009200021D113F13872BCBF01F00040704741F48F
:1009300080114FEA5252C2F11802C2F1200C10FA93
:100940000CF320FA02F018BF40F001004FEAC12377
:100950004FEAD32303FA0CFC40EA0C0023FA02F31B
:100960004FEA4303CCE77FEA625307D150EA0133F1
:100970001EBF4FF0FE4040F44000704701F00040C1
:1009800040F0FE4040F40000704700BF80F000409F
:1009900002E000BF81F0004142001FBF5FEA410357
:1009A00092EA030F7FEA226C7FEA236C6AD04FEA57
:1009B0001262D2EB1363C1BFD2184140484041409C
:1009C000B8BF5B42192B88BF704710F0004F40F44E
:1009D000000020F07F4018BF404211F0004F41F46A
:1009E000000121F07F4118BF494292EA030F3FD036
:1009F000A2F1010241FA03FC10EB0C00C3F1200349
:100A000001FA03F100F0004302D5494260EB4000D7
:100A1000B0F5000F13D3B0F1807F06D340084FEA42
:100A2000310102F10102FE2A51D2B1F1004F40EB37
:100A3000C25008BF20F0010040EA0300704749009F
:100A400040EB0000013A28BFB0F5000FEDD2B0FA3C
:100A500080FCACF1080CB2EB0C0200FA0CF0AABF5F
:100A600000EBC25052421843BCBFD04018437047FD
:100A700092F0000F81F4000106BF80F40000013203
:100A8000013BB5E74FEA41037FEA226C18BF7FEADA
:100A9000236C21D092EA030F04D092F0000F08BF1C
:100AA0000846704790EA010F1CBF0020704712F003
:100AB0007F4F04D1400028BF40F00040704712F142
:100AC00000723CBF00F50000704700F0004343F0A7
:100AD000FE4040F4000070477FEA226216BF0846DD
:100AE0007FEA23630146420206BF5FEA412390EAA0
:100AF000010F40F4800070474FF0000304E000BF96
:100B000010F0004348BF40425FEA000C08BF704746
:100B100043F0964301464FF000001CE050EA01020A
:100B200008BF70474FF000030AE000BF50EA01021F
:100B300008BF704711F0004302D5404261EB41010C
:100B40005FEA010C02BF84460146002043F0B64331
:100B500008BFA3F18053A3F50003BCFA8CF2083A56
:100B6000A3EBC25310DB01FA02FC634400FA02FC5F
:100B7000C2F12002BCF1004F20FA02F243EB020066
:100B800008BF20F00100704702F1200201FA02FCC8
:100B9000C2F1200250EA4C0021FA02F243EB0200BB
:100BA00008BF20EADC7070474FF0FF0C1CEAD052FF
:100BB0001EBF1CEAD15392EA0C0F93EA0C0F6FD0C0
:100BC0001A4480EA010C400218BF5FEA41211ED09E
:100BD0004FF0006343EA501043EA5111A0FB01318A
:100BE0000CF00040B1F5000F3EBF490041EAD3715F
:100BF0005B0040EA010062F17F02FD2A1DD8B3F1DB
:100C0000004F40EBC25008BF20F00100704790F049
:100C1000000F0CF0004C08BF49024CEA502040EA9B
:100C200051207F3AC2BFD2F1FF0340EAC250704761
:100C300040F400004FF00003013A5DDC12F1190F9F
:100C4000DCBF00F000407047C2F10002410021FA11
:100C500002F1C2F1200200FA02FC5FEA310040F129
:100C6000000053EA4C0308BF20EADC70704792F0A2
:100C7000000F00F0004C02BF400010F4000F013ADA
:100C8000F9D040EA0C0093F0000F01F0004C02BFD5
:100C9000490011F4000F013BF9D041EA0C018FE744
:100CA0000CEAD15392EA0C0F18BF93EA0C0F0AD04A
:100CB00030F0004C18BF31F0004CD8D180EA010070
:100CC00000F00040704790F0000F17BF90F0004F09
:100CD000084691F0000F91F0004F14D092EA0C0FEB
:100CE00001D142020FD193EA0C0F03D14B0218BF7E
:100CF000084608D180EA010000F0004040F0FE40C4
:100D000040F40000704740F0FE4040F4400070475F
:100D10004FF0FF0C1CEAD0521EBF1CEAD15392EADE
:100D20000C0F93EA0C0F69D0A2EB030280EA010CCE
:100D300049024FEA402037D04FF0805343EA111167
:100D400043EA10130CF000408B4238BF5B0042F1C5
:100D50007D024FF4000C8B4224BF5B1A40EA0C006A
:100D6000B3EB510F24BFA3EB510340EA5C00B3EB9C
:100D7000910F24BFA3EB910340EA9C00B3EBD10F8A
:100D800024BFA3EBD10340EADC001B0118BF5FEADC
:100D90001C1CE0D1FD2A3FF650AF8B4240EBC25005
:100DA00008BF20F0010070470CF0004C4CEA5020C6
:100DB0007F32C2BFD2F1FF0340EAC250704740F415
:100DC00000004FF00003013A37E792F0000F00F007
:100DD000004C02BF400010F4000F013AF9D040EA85
:100DE0000C0093F0000F01F0004C02BF490011F419
:100DF000000F013BF9D041EA0C0195E70CEAD15311
:100E000092EA0C0F08D142027FF47DAF93EA0C0FF7
:100E10007FF470AF084676E793EA0C0F04D14B02DB
:100E20003FF44CAF08466EE730F0004C18BF31F08D
:100E3000004CCAD130F000427FF45CAF31F0004387
:100E40007FF43CAF5FE700BF4FF0FF3C06E000BF20
:100E50004FF0010C02E000BF4FF0010C4DF804CD43
:100E60004FEA40024FEA41037FEA226C18BF7FEA53
:100E7000236C11D001B052EA530C18BF90EA010F55
:100E800058BFB2EB030088BFC81738BF6FEAE170E4
:100E900018BF40F0010070477FEA226C02D15FEA80
:100EA000402C05D17FEA236CE4D15FEA412CE1D0EC
:100EB0005DF8040B704700BF844608466146FFE7B3
:100EC0000FB5FFF7C9FF002848BF10F1000F0FBD95
:100ED0004DF808EDFFF7F4FF0CBF012000205DF88E
:100EE00008FB00BF4DF808EDFFF7EAFF34BF012013
:100EF00000205DF808FB00BF4DF808EDFFF7E0FFAC
:100F000094BF012000205DF808FB00BF4DF808EDFC
:100F1000FFF7D2FF94BF012000205DF808FB00BF5F
:100F20004DF808EDFFF7C8FF34BF012000205DF841
:100F300008FB00BF42000ED2B2F1FE4F0BD34FF0C0
:100F40009E03B3EB126209D44FEA002343F000433F
:100F500023FA02F070474FF00000704712F1610F62
:100F600001D1420202D14FF0FF3070474FF0000034
:100F7000704700BF80B584B000AF3B1D00221A60EF
:100F80005A609A60204B214A1A601F4B4FF48072BE
:100F90009A601D4B01221A731B4B00221A751A4BC3
:100FA0004FF46022DA61184B00225A60164B02227D
:100FB0001A61154801F04EFA0346002B01D000F0EB
:100FC00052FC01237B600123BB600023FB603B1DBF
:100FD00019460D4801F0D8FC0346002B01D000F063
:100FE00042FC02237B600223BB603B1D194606487E
:100FF00001F0CAFC0346002B01D000F034FC00BF16
:101000001037BD4680BD00BF2800002000240140ED
:1010100080B588B000AF786007F1100300221A6035
:101020005A609A60DA607B681B682C4A934251D1FF
:101030002B4B9B692A4A43F400739361284B9B69AD
:1010400003F40073FB60FB68254B9B69244A43F063
:1010500004039361224B9B6903F00403BB60BB68EC
:1010600006233B6103237B6107F1100319461D48EA
:1010700002F09CF91C4B1D4A1A601B4B00225A605F
:10108000194B00229A60184B8022DA60164B4FF4FD
:1010900000721A61144B4FF400625A61124B202205
:1010A0009A61114B0022DA610F4801F091FF03466B
:1010B000002B01D000F0D7FB7B680B4A1A620A4A6A
:1010C0007B68536200220021122001F02EFF1220C3
:1010D00001F047FF00BF2037BD4680BD002401401E
:1010E00000100240000801405800002008000240A3
:1010F00080B582B000AF0C4B5B690B4A43F0010333
:101100005361094B5B6903F001037B607B6800223C
:1011100000210B2001F009FF0B2001F022FF00BF8E
:101120000837BD4680BD00BF0010024080B588B0C2
:1011300000AF07F1100300221A605A609A60DA606B
:101140002D4B9B692C4A43F0100393612A4B9B69FA
:1011500003F01003FB60FB68274B9B69264A43F0B2
:1011600020039361244B9B6903F02003BB60BB68A1
:10117000214B9B69204A43F0040393611E4B9B69FA
:1011800003F004037B607B681B4B9B691A4A43F0A6
:1011900008039361184B9B6903F008033B603B68AD
:1011A00000220821154802F09CFA00224FF6034164
:1011B000134802F096FA08233B6101237B61002368
:1011C000BB610223FB6107F1100319460B4802F0D3
:1011D000EDF84FF603433B6101237B610023BB61C4
:1011E0000223FB6107F110031946054802F0DEF8FF
:1011F00000BF2037BD4680BD0010024000080140FE
:10120000000C014080B582B000AF0346FB71FB7952
:101210001A464FF40041034802F063FA00BF083752
:10122000BD4680BD000C014080B582B000AF0346D2
:10123000FB71FB791A464FF48041034802F051FAE2
:1012400000BF0837BD4680BD000C014080B582B0AC
:1012500000AF0821202001F093F801F0B5F8786084
:101260007B681B0C044A13607B689BB2034A1360C3
:1012700000BF0837BD4680BD9C000020A0000020B4
:1012800080B500AF00F01AFC1023164A00210020A0
:1012900000F0B2FD1023144A1021002000F0ACFD34
:1012A0001023124A1021682000F0A6FD1023104AD6
:1012B0002021002000F0A0FD10230C4A20216820EE
:1012C00000F09AFD10230B4A3021002000F094FD1D
:1012D0001023094A3021602000F08EFD00F062FBEF
:1012E00000BF80BD904200089C420008A442000854
:1012F000A8420008AC420008B0420008000000000C
:1013000080B5EEB002AF02F099FE00F051FAFFF79F
:101310000DFFFFF7EDFEFFF72DFE002387F8A73145
:10132000002387F8A63101220821C74802F0D9F925
:101330003B4664221946C54801F064F9482002F092
:10134000DFFE4FF47A7002F05DFF00F099FD10238C
:10135000BF4A0021002000F04FFD00F023FB01F008
:1013600005F8642002F018FFFFF770FF05E0FFF7B3
:101370006DFF4FF4FA7002F00FFFB64B1B68B3F528
:10138000C87F03D1B44B1B68002BF0D097F8A7316E
:10139000002B04D1142387F8A731FFF771FF97F8CA
:1013A000A731013B87F8A731FFF750FFA94B1A6817
:1013B0001023009305231021402000F0AFFCA54B23
:1013C0001B68B3F5C87F07D80123009310233C2284
:1013D0001021482000F0ECFB0023C7F8AC310023BB
:1013E000C7F8A8310023C7F8A0311FE007F5D8736C
:1013F000A3F5D873D7F8A02153F82230D7F8AC2141
:101400001344C7F8AC31D7F8A0315A1C07F5D8738C
:10141000A3F5D87353F82230D7F8A8211344C7F89E
:10142000A831D7F8A0310233C7F8A031D7F8A031DE
:10143000632BDBD9D7F8AC31884AA2FB03231B0905
:10144000C7F8AC31D7F8A831844AA2FB03231B09A3
:10145000C7F8A831D7F8AC01FFF74EFB0346184692
:10146000FEF7DAFF74A3D3E90023FFF72DF8024655
:101470000B46104619464FF00002794BFFF74EF924
:1014800002460B4610461946FFF730FA0346C7F8E6
:1014900098317449D7F89801FFF786FB0346C7F8DF
:1014A00094314FF07E51D7F89401FFF71BFD0346AE
:1014B000002B06D010236C4A2021582000F09CFC01
:1014C0000BE0D7F89401FFF735FD02461023009397
:1014D00005232021402000F021FCD7F8A801FFF7C8
:1014E0000BFB034661491846FFF712FC03461846FA
:1014F000FEF792FF52A3D3E90023FEF7E5FF024671
:101500000B4610461946FFF7F1F90346C7F890312C
:10151000D7F89001FFF70EFD024610230093022337
:101520003021402000F0FAFB0123009310232E22EB
:101530003021502000F03CFB4D49D7F89001FFF7D7
:1015400033FB03461846FFF7F5FC0146494BA3FB66
:101550000123DA0813469B0013445B00CA1A1023C8
:10156000009301233021582000F0D8FB394B1B6831
:1015700040F2DB5293420DD9002201213E4802F095
:10158000B0F8012202213C4802F0ABF8012387F8B1
:101590009F311FE02F4B1B68B3F57A7F0DD30122DB
:1015A0000121354802F09DF800220221324802F064
:1015B00098F8002387F89F310CE0002201212E4883
:1015C00002F08FF8002202212B4802F08AF8002353
:1015D00087F89F312949D7F89401FFF797FC034614
:1015E000002B0FD000224FF48061234802F079F8DD
:1015F00001224FF40061204802F073F8012387F8BC
:101600009E314EE01E49D7F89401FFF77FFC034658
:10161000002B37D001224FF48061174802F061F8A7
:1016200000224FF40061144802F05BF8002387F8B1
:101630009E3136E0AFF300806666666666660A40F5
:101640006666666666E634400008014028000020B1
:10165000B84200089C000020A00000201F85EB512C
:101660000000B0400000C842C44200080080894425
:1016700000002041CDCCCCCC000C01400000484201
:101680000000A04100224FF48061454802F029F893
:1016900000224FF40061424802F023F8002387F84B
:1016A0009E3197F89F31002B03D197F89E31002B84
:1016B00001D0012300E0002303F00103DBB2184650
:1016C000FFF7B2FD97F8A631002B15D01023354A4D
:1016D0003021402000F090FB00224FF48051304830
:1016E00001F0FFFF00224FF400512D4801F0F9FFF7
:1016F0000020FFF787FD4BE04FF08041D7F89001C5
:10170000FFF7F0FB0346002B03D0012387F8A63137
:101710003EE02549D7F89001FFF7EEFB0346002B8A
:101720000FD000224FF480511D4801F0DAFF012252
:101730004FF400511A4801F0D4FF0120FFF762FD79
:1017400026E01A49D7F89001FFF7D6FB0346002B95
:101750000FD001224FF48051114801F0C2FF002246
:101760004FF400510E4801F0BCFF0020FFF74AFD86
:101770000EE000224FF48051094801F0B2FF002230
:101780004FF40051064801F0ACFF0020FFF73AFD8E
:1017900000F008F94FF4FA7002F034FDF6E500BFEE
:1017A000000C0140C84200080000944100009C4128
:1017B00080B594B000AF07F1280328220021184615
:1017C00002F02DFD07F1140300221A605A609A609E
:1017D000DA601A613B1D00221A605A609A60DA6072
:1017E0000123BB624FF48033FB6200233B63012380
:1017F000BB6302237B644FF48033BB644FF4E0137C
:10180000FB6407F12803184602F03AF80346002B60
:1018100001D000F028F80F237B610223BB61002375
:10182000FB614FF480633B6200237B6207F114038A
:101830000221184602F0A6FA0346002B01D000F060
:1018400012F802237B604FF40043FB603B1D1846F7
:1018500001F060FF0346002B01D000F004F800BF48
:101860005037BD4680BD80B400AF72B600BFFEE702
:1018700080B485B000AF154B9B69144A43F0010357
:101880009361124B9B6903F00103BB60BB680F4B74
:10189000DB690E4A43F08053D3610C4BDB6903F0E4
:1018A00080537B607B680A4B5B68FB60FB6823F0BE
:1018B000E063FB60FB6843F00073FB60044AFB6875
:1018C000536000BF1437BD4680BC70470010024013
:1018D0000000014080B400AFFEE780B400AFFEE737
:1018E00080B400AFFEE780B400AFFEE780B400AF85
:1018F000FEE780B400AF00BFBD4680BC704780B437
:1019000000AF00BFBD4680BC704780B400AF00BFD1
:10191000BD4680BC704780B500AF02F0D5FB00BF6C
:1019200080BD000080B500AF024801F00BFC00BF95
:1019300080BD00BF5800002080B500AF024800F015
:101940003FFF00BF80BD00BF2800002080B400AF73
:1019500000BFBD4680BC7047FFF7F8FF0B480C493D
:101960000C4A002302E0D458C4500433C4188C42FB
:10197000F9D3094A094C002301E013600432A24262
:10198000FBD302F055FCFFF7BBFC704700000020C2
:101990000C000020BC5A00080C000020AC04002001
:1019A000FEE7000080B582B000AF0023FB7126E0A7
:1019B000FB79503BDBB20021184600F02BF80021E8
:1019C000002000F027F80021102000F023F8002369
:1019D000BB710DE0BA79FB790D49D2000A4413447A
:1019E0001B780121184600F015F8BB790133BB7153
:1019F00097F90630002BEDDAFB790133FB71FB79A7
:101A0000072BD5D900BF00BF0837BD4680BD00BF3A
:101A1000A400002080B584B000AF03460A46FB71E5
:101A20001346BB71BB79002B05D00122402122480F
:101A300001F057FE04E0002240211F4801F051FE52
:101A4000002220211C4801F04CFE0023FB7322E001
:101A500000224FF40071184801F043FE97F9073057
:101A6000002B06DA01224FF48071134801F039FE91
:101A700005E000224FF480710F4801F032FE012290
:101A80004FF400710C4801F02CFEFB795B00FB71F8
:101A9000FB7B0133FB73FB7B072BD9D90122202170
:101AA000054801F01EFE01224021034801F019FE05
:101AB00000BF1037BD4680BD000C014080B582B02C
:101AC00000AF0023FB7114E00023BB710AE0BA7978
:101AD000FB790C49D2000A44134400221A70BB79E6
:101AE0000133BB7197F90630002BF0DAFB79013333
:101AF000FB71FB79072BE7D9FFF754FF00BF0837CD
:101B0000BD4680BDA400002080B485B000AF034670
:101B1000FB710B46BB7113467B710023FB7397F976
:101B20000730002B3CDBBB793F2B39D8BB79DB0876
:101B3000BB73BB7903F007037B737B7B012202FA43
:101B400003F3FB737B79002B12D0FA79BB7B174927
:101B5000D2000A4413441878FA79BB7BF97B01431D
:101B6000C8B21249D2000A44134402461A7018E05F
:101B7000FA79BB7B0D49D2000A4413441B785AB250
:101B800097F90F30DB435BB2134059B2FA79BB7B54
:101B9000C8B20649D2000A44134402461A7000E053
:101BA00000BF1437BD4680BC704700BFA4000020B2
:101BB00090B587B000AF0446084611461A46234642
:101BC000FB710346BB710B467B7113463B71BB79BE
:101BD000FB7300233B613B79DB08DBB21A463B79A0
:101BE00003F00703DBB2002B14BF01230023DBB299
:101BF0001344DBB23A795208D2B202FB03F3BB734F
:101C00007B79203B7B713B790C2B08D17A79134689
:101C10005B0013449B00304A13443B6113E03B7963
:101C2000102B05D17B791B012C4A13443B610AE040
:101C30003B79182B4BD17A791346DB0013449B0078
:101C4000274A13443B610023BB753BE0BB7D3A69E7
:101C500013441B78FB7500237B752DE097F9173033
:101C6000002B07DA97F82820B979FB791846FFF797
:101C70004BFF0CE097F82830002B0CBF012300230A
:101C8000DBB21A46B979FB791846FFF73DFFFB7DB9
:101C90005B00FB75BB790133BB71BA79FB7BD21A50
:101CA0003B799A4205D1FB7BBB71FB790133FB7118
:101CB00005E07B7D01337B757B7D072BCED9BB7D1A
:101CC0000133BB75BA7DBB7B9A42BFD300E000BF36
:101CD0001C37BD4690BD00BFE042000854470008D5
:101CE000444D000880B485B000AF03460A46FB713E
:101CF0001346BB710123FB6004E0FA79FB6802FB29
:101D000003F3FB60BB795A1EBA71002BF5D1FB6857
:101D100018461437BD4680BC7047000090B587B0A8
:101D200002AF3A601A460346FB710B46BB7113467D
:101D30007B710023BB730023FB7351E07A79FB7B3B
:101D4000D31ADBB2013BDBB219460A20FFF7CAFF08
:101D500002463B68B3FBF2F1264BA3FB0123DA08F2
:101D600013469B0013445B00CA1A13467B73BB7B6C
:101D7000002B1DD1FA7B7B79013B9A4218DA7B7BE1
:101D8000002B13D197F820305B08DBB2FA7B02FB03
:101D900003F3DAB2FB791344D8B297F82030B9795B
:101DA000012200922022FFF703FF16E00123BB73FC
:101DB00097F820305B08DBB2FA7B02FB03F3DAB260
:101DC000FB791344D8B27B7B3033DAB297F82030FA
:101DD000B97901240094FFF7EBFEFB7B0133FB7321
:101DE000FA7B7B799A42A9D300BF00BF1437BD4666
:101DF00090BD00BFCDCCCCCC90B585B002AF3A60E1
:101E00001A460346FB710B46BB7113467B712BE0F0
:101E1000FA797B795B08DBB2C3F180039A4205DD76
:101E20000023FB71BA797B791344BB71BA797B7952
:101E3000C3F140039A4205DD0023FB71FB79BB71BE
:101E4000FFF73CFE3B681A787B79B979F879012471
:101E50000094FFF7ADFE7B795B08DAB2FB7913449F
:101E6000FB713B6801333B603B681B787E2B03D8DA
:101E70003B681B781F2BCBD800BF0C37BD4690BDED
:101E800080B586B000AF704B9B696F4A43F0080382
:101E900093616D4B9B6903F008037B607B68802333
:101EA000BB600123FB6001233B6101237B6107F1E0
:101EB00008031946654801F079FA2023BB60012325
:101EC000FB6001233B6101237B6107F10803194695
:101ED0005E4801F06BFA4023BB600123FB600123E5
:101EE0003B6101237B6107F108031946574801F064
:101EF0005DFA4FF40073BB600123FB6001233B617B
:101F000001237B6107F108031946504801F04EFA9E
:101F10004FF48073BB600123FB6001233B6101230D
:101F20007B6107F108031946484801F03FFA012296
:101F30004FF48071454801F0D4FB01224FF4007149
:101F4000424801F0CEFB01222021404801F0C9FBAC
:101F5000012240213D4801F0C4FB002280213B4882
:101F600001F0BFFB642002F04DF9012280213748C7
:101F700001F0B7FB0021AE20FFF74CFD0021D5207A
:101F8000FFF748FD00215020FFF744FD0021A82065
:101F9000FFF740FD00213F20FFF73CFD0021D3204B
:101FA000FFF738FD00210020FFF734FD002140201D
:101FB000FFF730FD00218D20FFF72CFD00211420BC
:101FC000FFF728FD00212020FFF724FD002102203B
:101FD000FFF720FD0021A120FFF71CFD0021C820F4
:101FE000FFF718FD0021DA20FFF714FD0021122071
:101FF000FFF710FD00218120FFF70CFD0021EF20ED
:10200000FFF708FD0021D920FFF704FD0021F12092
:10201000FFF700FD0021DB20FFF7FCFC0021302052
:10202000FFF7F8FC0021A420FFF7F4FC0021A62014
:10203000FFF7F0FC0021AF20FFF7ECFCFFF73EFDBF
:1020400000BF1837BD4680BD00100240000C0140A3
:1020500080B584B000AF08233B6001237B6001237F
:10206000FB603B461946094801F0A0F910233B608C
:1020700001237B600123FB603B461946034801F0C6
:1020800095F900BF1037BD4680BD00BF000C014070
:1020900080B584B000AF10233B6001237B60012337
:1020A000FB603B461946034801F080F900BF10373A
:1020B000BD4680BD000C014080B584B000AF102348
:1020C0003B6000237B600123FB603B4619460348CD
:1020D00001F06CF900BF1037BD4680BD000C014017
:1020E00080B500AFFFF7D4FF012210210F4801F0A7
:1020F000F8FA012208210D4801F0F3FA0122082123
:102100000A4801F0EEFA142002F012F80022102121
:10211000064801F0E6FA142002F00AF8002208212D
:10212000024801F0DEFA00BF80BD00BF000C014094
:1021300080B500AFFFF7ACFF002208210C4801F08A
:10214000D0FA002210210A4801F0CBFA142001F045
:10215000EFFF01220821064801F0C3FA01221021F5
:10216000034801F0BEFA142001F0E2FF00BF80BD79
:10217000000C014080B582B000AF0023FB71FFF777
:102180009BFF01221021154801F0ABFA0A2001F053
:10219000CFFF01220821114801F0A3FA0A2001F023
:1021A000C7FF09E0FB790133FB71FB79FA2B03D9F7
:1021B000FFF7BEFF01230CE01021084801F07AFA76
:1021C0000346002BEED100220821044801F089FAD1
:1021D000002318460837BD4680BD00BF000C0140F3
:1021E00080B500AF002208210D4801F07AFAFFF710
:1021F0004FFF002210210A4801F073FA142001F069
:1022000097FF01220821064801F06BFA142001F023
:102210008FFF00220821024801F063FA00BF80BD51
:10222000000C014080B500AF002208210D4801F0EC
:1022300058FAFFF72DFF012210210A4801F051FA48
:10224000142001F075FF01220821064801F049FA27
:10225000142001F06DFF00220821024801F041FA2C
:1022600000BF80BD000C014080B584B000AF0346C4
:10227000FB71FFF70DFF002208211C4801F031FA25
:102280000023FB7327E097F90730002B05DA0122C2
:102290001021164801F025FA04E00022102113480D
:1022A00001F01FFAFB795B00FB71142001F040FF85
:1022B000012208210D4801F014FA142001F038FF22
:1022C00000220821094801F00CFA142001F030FF27
:1022D000FB7B0133FB73FB7B072BD4D9142001F06C
:1022E00027FF00BF1037BD4680BD00BF000C014076
:1022F00080B584B000AF0346FB710023BB81FFF7BC
:10230000DBFE0023FB731FE000220821164801F0CA
:10231000E8F9142001F00CFF01220821124801F015
:10232000E0F9BB895B00BB8110210F4801F0C2F9C5
:102330000346002B02D0BB890133BB81142001F07E
:10234000F7FEFB7B0133FB73FB7B072BDCD9FB79AF
:10235000002B02D1FFF766FF01E0FFF741FFBB89C9
:1023600018461037BD4680BD000C014080B500AF57
:10237000FFF76EFE0321202000F002F800BF80BDB1
:1023800080B582B000AF03460A46FB711346BB71AD
:10239000FFF7A6FEB020FFF767FFFFF7EBFEFB7924
:1023A0001846FFF761FFFFF7E5FEBB791846FFF718
:1023B0005BFFFFF7DFFEFFF7BBFE642001F0ECFEE2
:1023C00000BF0837BD4680BD80B582B000AFFFF7C3
:1023D00087FEB120FFF748FFFFF7CCFE0120FFF793
:1023E00087FF03467B607B681B027B600120FFF751
:1023F0007FFF03461A467B6813447B600120FFF78A
:1024000077FF0346FB707B681B027B600120FFF7B0
:102410006FFF03461A467B6813447B607B681B0290
:102420007B600020FFF764FF03461A467B68134475
:102430007B60FFF77DFE7B6818460837BD4680BD90
:1024400080B483B000AF786000BF0C37BD4680BC5D
:102450007047000080B586B000AF78600023FB7540
:1024600000233B610023BB600023FB607B68002BE3
:1024700001D10123BEE07B689B68002B7B689B6ACF
:10248000002B09D17B680022DA627B68002283F886
:1024900024207868FEF7BCFD786800F0C7FB03468F
:1024A000FB757B689B6A03F01003002B40F099805A
:1024B000FB7D002B40F095807B689B6A23F488535A
:1024C00023F0020343F002027B689A627B685A6839
:1024D0007B68DB691A437B681B7B5B001343BA682C
:1024E0001343BB607B689B68B3F5807F03D07B6838
:1024F0009B68012B02D14FF4807300E000233A69FE
:1025000013433B617B681B7D012B19D17B681B7BCF
:10251000002B09D17B689B69013B5A033B6913433C
:1025200043F400633B610BE07B689B6A43F020024D
:102530007B689A627B68DB6A43F001027B68DA623F
:102540007B681B685B6823F469417B681B683A6998
:102550000A435A607B681B689A68284B13407A6864
:102560001268B9680B4393607B689B68B3F5807F02
:1025700003D07B689B68012B04D17B681B69013BFE
:102580001B05FB607B681B68DB6A23F470017B68BA
:102590001B68FA680A43DA627B681B689A68184B02
:1025A0001340BA689A420BD17B680022DA627B68DA
:1025B0009B6A23F0030343F001027B689A6218E0F0
:1025C0007B689B6A23F0120343F010027B689A62D7
:1025D0007B68DB6A43F001027B68DA620123FB75EA
:1025E00007E07B689B6A43F010027B689A620123D4
:1025F000FB75FB7D18461837BD4680BDFDF7E1FF32
:10260000FE0E1FFF80B586B000AFF860B9607A603B
:102610000023FB75FB681B68644A934204D0FB6887
:102620001B68634A934206D1604B5B6803F47023D6
:10263000002B40F0B380FB6893F82430012B01D1CC
:102640000223AEE0FB68012283F82420F86800F042
:1026500093FA0346FB75FB7D002B40F09A80FB68E4
:102660009B6A23F4706323F0010343F48072FB68D8
:102670009A62FB681B684E4A934205D14B4B5B68DC
:1026800003F47023002B15D1FB689B6A23F480129E
:10269000FB689A62FB681B685B6803F48063002B2D
:1026A00026D0FB689B6A23F4405343F48052FB68B6
:1026B0009A621DE0FB689B6A43F48012FB689A6291
:1026C000FB681B68394A934204D0FB681B68384A90
:1026D00093420DD1354B5B6803F48063002B07D028
:1026E000FB689B6A23F4405343F48052FB689A6270
:1026F000FB689B6A03F48053002B06D0FB68DB6AFF
:1027000023F00602FB68DA6202E0FB680022DA626C
:10271000FB68002283F82420FB681B6A254A9A6222
:10272000FB681B6A244ADA62FB681B6A234A1A6345
:10273000FB681B686FF002021A60FB681B689A68EE
:10274000FB681B6842F480729A60FB68186AFB6839
:102750001B684C331946BA687B6800F093FCFB6831
:102760001B689B6803F46023B3F5602F08D1FB68F6
:102770001B689A68FB681B6842F4A0029A600FE02D
:10278000FB681B689A68FB681B6842F480129A60B9
:1027900006E0FB68002283F8242001E00123FB759A
:1027A000FB7D18461837BD4680BD00BF00240140A0
:1027B00000280140AF2C00082B2D0008472D0008F1
:1027C00080B584B000AF78607B681B681B68FB60D5
:1027D0007B681B685B68BB60BB6803F02003002B51
:1027E0003ED0FB6803F00203002B39D07B689B6A64
:1027F00003F01003002B05D17B689B6A43F4007241
:102800007B689A627B681B689B6803F46023B3F55E
:10281000602F1DD17B681B7B002B19D17B681B6847
:102820005A687B681B6822F020025A607B689B6AAA
:1028300023F480727B689A627B689B6A03F48053FE
:10284000002B05D17B689B6A43F001027B689A628A
:10285000786800F074F87B681B686FF012021A60E9
:10286000BB6803F08003002B4DD0FB6803F004032A
:10287000002B48D07B689B6A03F01003002B05D126
:102880007B689B6A43F400527B689A627B681B6892
:102890009B6803F4E043B3F5E04F12D07B681B68FC
:1028A0005B6803F48063002B25D17B681B689B6801
:1028B00003F46023B3F5602F1DD17B681B7B002BD5
:1028C00019D17B681B685A687B681B6822F08002FC
:1028D0005A607B689B6A23F480527B689A627B68AB
:1028E0009B6A03F48073002B05D17B689B6A43F0DD
:1028F00001027B689A627868FFF7A2FD7B681B681B
:102900006FF00C021A60BB6803F04003002B12D07A
:10291000FB6803F00103002B0DD07B689B6A43F436
:1029200080327B689A62786800F01BF87B681B68CD
:102930006FF001021A6000BF1037BD4680BD80B441
:1029400083B000AF786000BF0C37BD4680BC7047D5
:1029500080B483B000AF786000BF0C37BD4680BC48
:10296000704780B483B000AF786000BF0C37BD46BD
:1029700080BC704780B483B000AF786000BF0C3774
:10298000BD4680BC7047000080B485B000AF786061
:1029900039600023FB730023BB607B6893F824300D
:1029A000012B01D10223DCE07B68012283F8242083
:1029B0003B685B68062B1CD87B681B68596B3B68BF
:1029C0005A6813469B001344053B1F2202FA03F387
:1029D000DB4319403B6818683B685A6813469B0004
:1029E0001344053B00FA03F27B681B680A435A63F1
:1029F0003CE03B685B680C2B1CD87B681B68196B40
:102A00003B685A6813469B001344233B1F2202FA7B
:102A100003F3DB4319403B6818683B685A68134668
:102A20009B001344233B00FA03F27B681B680A43B4
:102A30001A631BE07B681B68D96A3B685A681346B7
:102A40009B001344413B1F2202FA03F3DB4319406E
:102A50003B6818683B685A6813469B001344413B27
:102A600000FA03F27B681B680A43DA623B681B6862
:102A7000092B1CD97B681B68D9683B681A68134608
:102A80005B0013441E3B072202FA03F3DB431940A9
:102A90003B6898683B681A6813465B0013441E3B0A
:102AA00000FA03F27B681B680A43DA6019E07B686E
:102AB0001B6819693B681A6813465B0013440722B8
:102AC00002FA03F3DB4319403B6898683B681A68D5
:102AD00013465B00134400FA03F27B681B680A4349
:102AE0001A613B681B68102B03D03B681B68112BD5
:102AF00032D17B681B681D4A934225D17B681B68D5
:102B00009B6803F40003002B26D17B681B689A683E
:102B10007B681B6842F400029A603B681B68102BBC
:102B20001AD1134B1B68134AA2FB03239A0C1346BA
:102B30009B0013445B00BB6002E0BB68013BBB60D1
:102B4000BB68002BF9D107E07B689B6A43F0200249
:102B50007B689A620123FB737B68002283F8242040
:102B6000FB7B18461437BD4680BC704700240140EB
:102B70000000002083DE1B4380B584B000AF786086
:102B80000023FB600023BB607B681B689B6803F02D
:102B90000103012B40D07B681B689A687B681B6827
:102BA00042F001029A601F4B1B681F4AA2FB0323DD
:102BB0009B0CBB6002E0BB68013BBB60BB68002BA9
:102BC000F9D101F093FAF8601FE001F08FFA0246A4
:102BD000FB68D31A022B18D97B681B689B6803F02B
:102BE0000103012B11D07B689B6A43F010027B68C4
:102BF0009A627B68DB6A43F001027B68DA627B6879
:102C0000002283F82420012307E07B681B689B686F
:102C100003F00103012BD8D1002318461037BD461D
:102C200080BD00BF0000002083DE1B4380B584B060
:102C300000AF78600023FB607B681B689B6803F033
:102C40000103012B2ED17B681B689A687B681B6887
:102C500022F001029A6001F049FAF8601BE001F0ED
:102C600045FA0246FB68D31A022B14D97B681B680D
:102C70009B6803F00103012B0DD17B689B6A43F035
:102C800010027B689A627B68DB6A43F001027B6812
:102C9000DA62012307E07B681B689B6803F001038D
:102CA000012BDCD0002318461037BD4680BD80B50F
:102CB00084B000AF78607B685B6AFB60FB689B6AEE
:102CC00003F05003002B27D1FB689B6A43F400728A
:102CD000FB689A62FB681B689B6803F46023B3F58A
:102CE000602F15D1FB681B7B002B11D1FB689B6A01
:102CF00023F48072FB689A62FB689B6A03F480533A
:102D0000002B05D1FB689B6A43F00102FB689A62C5
:102D1000F868FFF714FE04E0FB681B6A1B6B786819
:102D2000984700BF1037BD4680BD80B584B000AF66
:102D300078607B685B6AFB60F868FFF709FE00BF9C
:102D40001037BD4680BD80B584B000AF78607B6829
:102D50005B6AFB60FB689B6A43F04002FB689A6217
:102D6000FB68DB6A43F00402FB68DA62F868FFF78D
:102D700001FE00BF1037BD4680BD000080B485B0A5
:102D800000AF78607B6803F00703FB600C4BDB68E7
:102D9000BB60BA684FF6FF031340BB60FB681A02C2
:102DA000BB68134343F0BF6343F40033BB60044A82
:102DB000BB68D36000BF1437BD4680BC704700BFFE
:102DC00000ED00E080B400AF044BDB681B0A03F0A9
:102DD00007031846BD4680BC704700BF00ED00E009
:102DE00080B483B000AF0346FB7197F90730002B26
:102DF0000BDBFB7903F01F02064997F907305B09EB
:102E0000012000FA02F241F8232000BF0C37BD4632
:102E100080BC704700E100E080B483B000AF03469F
:102E20003960FB7197F90730002B0ADB3B68DAB297
:102E30000C4997F907301201D2B20B4483F80023F2
:102E40000AE03B68DAB20849FB7903F00F03043B60
:102E50001201D2B20B441A7600BF0C37BD4680BCBB
:102E6000704700BF00E100E000ED00E080B489B0F1
:102E700000AFF860B9607A60FB6803F00703FB619C
:102E8000FB69C3F10703042B28BF0423BB61FB6963
:102E90000433062B02D9FB69033B00E000237B616E
:102EA0004FF0FF32BB6902FA03F3DA43BB681A4002
:102EB0007B699A404FF0FF317B6901FA03F3D943F4
:102EC0007B680B40134318462437BD4680BC7047CF
:102ED00080B582B000AF78607B68013BB3F1807F42
:102EE00001D301230FE00A4A7B68013B53600F21A5
:102EF0004FF0FF30FFF790FF054B00229A60044B24
:102F000007221A60002318460837BD4680BD00BF5F
:102F100010E000E080B582B000AF78607868FFF71D
:102F20002DFF00BF0837BD4680BD80B586B000AF1D
:102F30000346B9607A60FB7300237B61FFF742FFB1
:102F400078617A68B9687869FFF790FF024697F967
:102F50000F3011461846FFF75FFF00BF1837BD4618
:102F600080BD80B582B000AF0346FB7197F9073092
:102F70001846FFF735FF00BF0837BD4680BD80B556
:102F800082B000AF78607868FFF7A2FF034618466A
:102F90000837BD4680BD000080B483B000AF7860C4
:102FA0007B68042B06D1094B1B68084A43F00403D5
:102FB000136005E0054B1B68044A23F0040313600B
:102FC00000BF0C37BD4680BC704700BF10E000E07A
:102FD00080B485B000AF78600023FB607B68002B75
:102FE00001D1012343E07B681B681A46224B13443E
:102FF000224AA2FB03231B099A007B681A647B68A0
:103000001F4ADA637B68022283F821207B681B68F1
:103010001B68FB60FB6823F47F5323F03003FB60E5
:103020007B685A687B689B681A437B68DB681A4335
:103030007B681B691A437B685B691A437B689B69E1
:103040001A437B68DB691343FA681343FB607B68B0
:103050001B68FA681A607B6800229A637B68012209
:1030600083F821207B68002283F820200023184663
:103070001437BD4680BC7047F8FFFDBFCDCCCCCC2B
:103080000000024080B586B000AFF860B9607A6099
:103090003B600023FB75FB6893F82030012B01D1C6
:1030A00002234BE0FB68012283F82020FB6893F8A1
:1030B0002130DBB2012B3AD1FB68022283F82120B8
:1030C000FB6800229A63FB681B681A68FB681B6830
:1030D00022F001021A603B687A68B968F86800F06B
:1030E00037F9FB68DB6A002B08D0FB681B681A689D
:1030F000FB681B6842F00E021A600FE0FB681B6859
:103100001A68FB681B6822F004021A60FB681B68DF
:103110001A68FB681B6842F00A021A60FB681B68A9
:103120001A68FB681B6842F001021A6005E0FB6840
:10313000002283F820200223FB75FB7D18461837F8
:10314000BD4680BD80B584B000AF78607B68DB6B26
:103150001B68FB607B681B681B68BB607B681B6C23
:1031600004229A40FB681340002B4FD0BB6803F049
:103170000403002B4AD07B681B681B6803F0200304
:10318000002B07D17B681B681A687B681B6822F0DC
:1031900004021A607B681B68664A934229D07B68E8
:1031A0001B68654A934222D07B681B68634A93423E
:1031B0001AD07B681B68624A934212D07B681B68F6
:1031C000604A93420AD07B681B685F4A934202D1EF
:1031D0004FF480030EE04FF080630BE04FF4802348
:1031E00008E04FF4804305E04FF4806302E04023A1
:1031F00000E00423554A53607B68DB6A002B00F033
:1032000094807B68DB6A786898478EE07B681B6CEB
:1032100002229A40FB681340002B56D0BB6803F093
:103220000203002B51D07B681B681B6803F020034E
:10323000002B0BD17B681B681A687B681B6822F027
:103240000A021A607B68012283F821207B681B68D0
:10325000384A934229D07B681B68374A934222D070
:103260007B681B68354A93421AD07B681B68344AD6
:10327000934212D07B681B68324A93420AD07B6823
:103280001B68314A934202D14FF400130EE04FF015
:1032900000730BE04FF4003308E04FF4005305E0F7
:1032A0004FF4007302E0202300E00223274A53601A
:1032B0007B68002283F820207B689B6A002B34D037
:1032C0007B689B6A786898472FE07B681B6C0822B4
:1032D0009A40FB681340002B28D0BB6803F008031A
:1032E000002B23D07B681B681A687B681B6822F060
:1032F0000E021A607B681A6C7B68DB6B012101FA95
:1033000002F25A607B6801229A637B68012283F88B
:1033100021207B68002283F820207B681B6B002B18
:1033200004D07B681B6B7868984700BF00BF1037DC
:10333000BD4680BD080002401C0002403000024033
:1033400044000240580002406C000240000002406D
:1033500080B485B000AFF860B9607A603B60FB680C
:103360001A6CFB68DB6B012101FA02F25A60FB6800
:103370001B683A685A60FB685B68102B08D1FB68D1
:103380001B687A689A60FB681B68BA68DA6007E0B5
:10339000FB681B68BA689A60FB681B687A68DA6029
:1033A00000BF1437BD4680BC7047000080B48BB0AE
:1033B00000AF7860396000237B6200233B6269E1E3
:1033C00001227B6A02FA03F3FB613B681B68FA691E
:1033D0001340BB61BA69FB699A4240F058813B686F
:1033E0005B689A4A93425ED0984A934275D8984A4D
:1033F000934258D0964A93426FD8964A934252D0FD
:10340000944A934269D8944A93424CD0924A934248
:1034100063D8924A934246D0904A93425DD8122B89
:103420002AD8122B59D801A252F823F0A734000849
:103430008134000893340008D5340008DB340008D8
:10344000DB340008DB340008DB340008DB34000820
:10345000DB340008DB340008DB340008DB34000810
:10346000DB340008DB340008DB340008DB34000800
:10347000893400089D340008794A934213D02CE027
:103480003B68DB683B6229E03B68DB6804333B62F6
:1034900024E03B68DB6808333B621FE03B68DB6885
:1034A0000C333B621AE03B689B68002B02D104237B
:1034B0003B6213E03B689B68012B05D108233B620C
:1034C0007B68FA691A6109E008233B627B68FA6944
:1034D0005A6103E000233B6200E000BFBB69FF2BA1
:1034E00001D87B6801E07B6804337B61BB69FF2BFB
:1034F00002D87B6A9B0002E07B6A083B9B003B6131
:103500007B691A680F213B6901FA03F3DB431A4018
:10351000396A3B6901FA03F31A437B691A603B6815
:103520005B6803F08053002B00F0B1804D4B9B692A
:103530004C4A43F0010393614A4B9B6903F001033A
:10354000BB60BB68484A7B6A9B08023352F8233051
:10355000FB607B6A03F003039B000F2202FA03F374
:10356000DB43FA681340FB607B68404A934213D008
:103570007B683F4A93420DD07B683E4A934207D016
:103580007B683D4A934201D1032306E0042304E013
:10359000022302E0012300E000237A6A02F0030222
:1035A00092009340FA681343FB602F497B6A9B08A3
:1035B0000233FA6841F823203B685B6803F4801308
:1035C000002B06D02D4B9A682C49BB6913438B60A6
:1035D00006E02A4B9A68BB69DB43284913408B609D
:1035E0003B685B6803F40013002B06D0234BDA68BA
:1035F0002249BB691343CB6006E0204BDA68BB6904
:10360000DB431E491340CB603B685B6803F4003327
:10361000002B06D0194B5A681849BB6913434B60FD
:1036200006E0164B5A68BB69DB43144913404B60F4
:103630003B685B6803F48033002B21D00F4B1A6882
:103640000E49BB6913430B6021E000BF000032103C
:1036500000003110000022100000211000001210A4
:10366000000011100010024000000140000801405D
:10367000000C014000100140001401400004014012
:103680000B4B1A68BB69DB43094913400B607B6A2B
:1036900001337B623B681A687B6A22FA03F3002BD2
:1036A0007FF48EAE00BF00BF2C37BD4680BC704794
:1036B0000004014080B485B000AF78600B467B8089
:1036C0007B689A687B881340002B02D00123FB7330
:1036D00001E00023FB73FB7B18461437BD4680BC1A
:1036E000704780B483B000AF78600B467B80134690
:1036F0007B707B78002B03D07A887B681A6103E0AB
:103700007B881A047B681A6100BF0C37BD4680BCF9
:103710007047000080B586B000AF786000233B6141
:103720000023FB607B681B6803F00103002B7DD046
:103730000023FB754F4BDB6903F08053002B0DD149
:103740004C4BDB694B4A43F08053D361494BDB69F7
:1037500003F08053BB60BB680123FB75464B1B68BD
:1037600003F48073002B18D1434B1B68424A43F487
:103770008073136000F0BAFC386108E000F0B6FC1A
:1037800002463B69D31A642B01D903236DE03A4BFF
:103790001B6803F48073002BF0D0364B1B6A03F4D4
:1037A0004073FB60FB68002B2ED07B685B6803F4E2
:1037B0004073FA689A4227D02E4B1B6A23F4407359
:1037C000FB602E4B01221A602C4B00221A60294A02
:1037D000FB681362FB6803F00103002B14D000F0B8
:1037E00085FC38610AE000F081FC02463B69D31A8F
:1037F00041F28832934201D9032336E01D4B1B6A04
:1038000003F00203002BEED01A4B1B6A23F4407224
:103810007B685B68174913430B62FB7D012B05D165
:10382000144BDB69134A23F08053D3617B681B6818
:1038300003F00203002B08D00E4B5B6823F44042D8
:103840007B689B680B4913434B607B681B6803F0E4
:103850001003002B08D0074B5B6823F480027B68C1
:10386000DB68044913434B60002318461837BD46F4
:1038700080BD00BF00100240007000404004424282
:1038800080B586B000AF78607B68002B01D1012342
:1038900072E27B681B6803F00103002B00F0878055
:1038A000924B5B6803F00C03042B0CD08F4B5B68CE
:1038B00003F00C03082B12D18C4B5B6803F48033AC
:1038C000B3F5803F0BD1894B1B6803F40033002B09
:1038D0006CD07B685B68002B68D101234CE27B686D
:1038E0005B68B3F5803F06D1804B1B687F4A43F489
:1038F000803313602EE07B685B68002B0CD17B4B20
:103900001B687A4A23F480331360784B1B68774A2C
:1039100023F4802313601DE07B685B68B3F5A02F60
:103920000CD1724B1B68714A43F4802313606F4BB8
:103930001B686E4A43F4803313600BE06B4B1B68CB
:103940006A4A23F480331360684B1B68674A23F488
:10395000802313607B685B68002B13D000F0C6FBEC
:10396000386108E000F0C2FB02463B69D31A642BC1
:1039700001D9032300E25D4B1B6803F40033002BE5
:10398000F0D014E000F0B2FB386108E000F0AEFBCC
:1039900002463B69D31A642B01D90323ECE1534B54
:1039A0001B6803F40033002BF0D100E000BF7B68FC
:1039B0001B6803F00203002B63D04C4B5B6803F0E1
:1039C0000C03002B0BD0494B5B6803F00C03082B56
:1039D0001CD1464B5B6803F48033002B16D1434B5C
:1039E0001B6803F00203002B05D07B681B69012BC9
:1039F00001D00123C0E13D4B1B6823F0F8027B6836
:103A00005B69DB00394913430B603AE07B681B6953
:103A1000002B20D0364B01221A6000F067FB386182
:103A200008E000F063FB02463B69D31A022B01D980
:103A30000323A1E12D4B1B6803F00203002BF0D000
:103A40002A4B1B6823F0F8027B685B69DB0027497F
:103A500013430B6015E0264B00221A6000F046FB72
:103A6000386108E000F042FB02463B69D31A022BA2
:103A700001D9032380E11D4B1B6803F00203002BD7
:103A8000F0D17B681B6803F00803002B3AD07B68F9
:103A90009B69002B19D0174B01221A6000F026FBFE
:103AA000386108E000F022FB02463B69D31A022B82
:103AB00001D9032360E10D4B5B6A03F00203002B85
:103AC000F0D0012000F09CFA1CE00A4B00221A60A2
:103AD00000F00CFB38610FE000F008FB02463B6988
:103AE000D31A022B08D9032346E100BF001002407D
:103AF0000000424280044242924B5B6A03F00203A0
:103B0000002BE9D17B681B6803F00403002B00F055
:103B1000A6800023FB758B4BDB6903F08053002BE1
:103B20000DD1884BDB69874A43F08053D361854BC5
:103B3000DB6903F08053BB60BB680123FB75824BDC
:103B40001B6803F48073002B18D17F4B1B687E4ADF
:103B500043F48073136000F0C9FA386108E000F0A4
:103B6000C5FA02463B69D31A642B01D9032303E14A
:103B7000754B1B6803F48073002BF0D07B68DB6807
:103B8000012B06D16F4B1B6A6E4A43F0010313628F
:103B90002DE07B68DB68002B0CD16A4B1B6A694AFD
:103BA00023F001031362674B1B6A664A23F0040388
:103BB00013621CE07B68DB68052B0CD1614B1B6A30
:103BC000604A43F0040313625E4B1B6A5D4A43F094
:103BD000010313620BE05B4B1B6A5A4A23F001039B
:103BE0001362584B1B6A574A23F0040313627B6825
:103BF000DB68002B15D000F079FA38610AE000F09C
:103C000075FA02463B69D31A41F28832934201D9D0
:103C10000323B1E04B4B1B6A03F00203002BEED0F1
:103C200014E000F063FA38610AE000F05FFA02463F
:103C30003B69D31A41F28832934201D903239BE0B6
:103C4000404B1B6A03F00203002BEED1FB7D012BDE
:103C500005D13C4BDB693B4A23F08053D3617B6841
:103C6000DB69002B00F08780364B5B6803F00C03A8
:103C7000082B61D07B68DB69022B46D1334B0022D5
:103C80001A6000F033FA386108E000F02FFA0246BB
:103C90003B69D31A022B01D903236DE0294B1B6822
:103CA00003F00073002BF0D17B681B6AB3F5803FF3
:103CB00008D1244B5B6823F400327B689B68214960
:103CC00013434B601F4B5B6823F474127B68196AC3
:103CD0007B685B6A0B431B4913434B601B4B012200
:103CE0001A6000F003FA386108E000F0FFF90246BC
:103CF0003B69D31A022B01D903233DE0114B1B680A
:103D000003F00073002BF0D035E0104B00221A6056
:103D100000F0ECF9386108E000F0E8F902463B6990
:103D2000D31A022B01D9032326E0064B1B6803F0AC
:103D30000073002BF0D11EE07B68DB69012B07D1FB
:103D4000012319E000100240007000406000424270
:103D50000B4B5B68FB60FB6803F480327B681B6A7B
:103D60009A4206D1FB6803F470127B685B6A9A4240
:103D700001D0012300E0002318461837BD4680BD5E
:103D80000010024080B584B000AF786039607B6875
:103D9000002B01D10123D0E06A4B1B6803F007031D
:103DA0003A689A4210D9674B1B6823F007026549AD
:103DB0003B6813430B60634B1B6803F007033A68CF
:103DC0009A4201D00123B8E07B681B6803F002032C
:103DD000002B20D07B681B6803F00403002B05D068
:103DE000594B5B68584A43F4E06353607B681B6837
:103DF00003F00803002B05D0534B5B68524A43F491
:103E000060535360504B5B6823F0F0027B689B6803
:103E10004D4913434B607B681B6803F00103002B83
:103E200040D07B685B68012B07D1474B1B6803F4CC
:103E30000033002B15D101237FE07B685B68022BE8
:103E400007D1414B1B6803F00073002B09D10123FC
:103E500073E03D4B1B6803F00203002B01D10123EB
:103E60006BE0394B5B6823F003027B685B68364983
:103E700013434B6000F03AF9F8600AE000F036F9BD
:103E80000246FB68D31A41F28832934201D90323D8
:103E900053E02D4B5B6803F00C027B685B689B0072
:103EA0009A42EBD1274B1B6803F007033A689A420A
:103EB00010D2244B1B6823F0070222493B681343AE
:103EC0000B60204B1B6803F007033A689A4201D04D
:103ED000012332E07B681B6803F00403002B08D049
:103EE000194B5B6823F4E0627B68DB681649134377
:103EF0004B607B681B6803F00803002B09D0124B52
:103F00005B6823F460527B681B69DB000E49134336
:103F10004B6000F021F802460B4B5B681B0903F075
:103F20000F030A49CB5C22FA03F3094A1360094BD9
:103F30001B68184600F098F8002318461037BD4655
:103F400080BD00BF0020024000100240D0420008A7
:103F5000000000200400002080B487B000AF0023E0
:103F6000FB600023BB6000237B6100237B60002398
:103F70003B611E4B5B68FB60FB6803F00C03042B8A
:103F800002D0082B03D027E0194B3B6127E0FB68E8
:103F90009B0C03F00F03174AD35C7B60FB6803F4B0
:103FA0008033002B10D0114B5B685B0C03F00103D6
:103FB000114AD35CBB607B680D4A03FB02F2BB680D
:103FC000B2FBF3F37B6104E07B680C4A02FB03F372
:103FD0007B617B693B6102E0054B3B6100BF3B6954
:103FE00018461C37BD4680BC704700BF0010024019
:103FF00000127A00A05A0008B05A000800093D00DB
:1040000080B485B000AF78600A4B1B680A4AA2FBF7
:1040100003235B0A7A6802FB03F3FB6000BFFB68C3
:104020005A1EFA60002BF9D100BF00BF1437BD46FD
:1040300080BC704700000020D34D621080B500AFF7
:10404000084B1B68074A43F0100313600320FEF778
:1040500061FF0F2000F008F8FDF70AFC0023184666
:1040600080BD00BF0020024080B582B000AF786004
:10407000124B1A68124B1B7819464FF47A73B3FB34
:10408000F1F3B2FBF3F31846FEF779FF0346002B7A
:1040900001D001230EE07B680F2B0AD8002279683B
:1040A0004FF0FF30FEF741FF064A7B6813600023A4
:1040B00000E0012318460837BD4680BD00000020FF
:1040C000080000200400002080B400AF054B1B78DE
:1040D0001A46054B1B681344034A136000BFBD46D4
:1040E00080BC704708000020A404002080B400AF0A
:1040F000024B1B681846BD4680BC7047A4040020D4
:1041000080B582B000AF0346FB80074B00221A60E7
:104110000020FEF741FFFB88DB089AB2034B1A80B0
:1041200000BF0837BD4680BD10E000E0A8040020B5
:1041300080B485B000AF7860154B1B881946154ACE
:104140007B6801FB03F35360124B00229A60114B12
:104150001B68104A43F0010313600E4B1B68FB60A1
:10416000FB6803F00103002B04D0FB6803F48033E9
:10417000002BF2D0074B1B68064A23F001031360A3
:10418000044B00229A6000BF1437BD4680BC7047C4
:10419000A804002010E000E080B584B000AF034622
:1041A000FB80FB88154AA2FB03239B099BB2FB60A3
:1041B000FB88124AA2FB031292094FF47A7101FBA9
:1041C00002F29B1A9BB2BB6005E00D48FFF7B0FFFF
:1041D000FB68013BFB60FB68002BF6D1BB68002B42
:1041E00007D0BB684FF47A7202FB03F31846FFF75F
:1041F0009FFF00BF1037BD4680BD00BFD34D62108A
:1042000040420F0080B582B000AF78607B689BB2FF
:104210001846FFF7C1FF00BF0837BD4680BD034603
:104220000244934200D1704703F8011BF9E70000F4
:1042300070B500260C4D0D4C641BA410A64209D18C
:1042400000F01AF800260A4D0A4C641BA410A6427E
:1042500005D170BD55F8043B98470136EEE755F897
:10426000043B98470136F2E7B45A0008B45A0008F4
:10427000B45A0008B85A0008F8B500BFF8BC08BC2A
:104280009E467047F8B500BFF8BC08BC9E46704714
:1042900053494C552D54656368000000434F323A32
:1042A0000000000070706D00434F3A004F323A003A
:1042B00025566F6C000000004C6F6164696E6720CA
:1042C0002E2E2E003C3100002A32302E3900000004
:1042D00000000000000000000102030406070809B6
:1042E00000000000000000000000000000000000CE
:1042F0003F4000000000000000003000400030009F
:104300004000000009000BC03D000BC03D0009004B
:1043100018C024407FE0224031800000180024C0F3
:104320001B000D803240018003801C4027401C8010
:104330000740004010006000000000000000000086
:104340000000000000001F802040402000004020AE
:1043500020401F8000000000090006001F800600AA
:1043600009000000040004003F8004000400000075
:1043700000100060000000000000000004000400C5
:1043800004000400040000000000004000000000E1
:1043900000000000002001C00600380040000000BE
:1043A0001F802040204020401F800000000010405F
:1043B0003FC000400000000018C0214022402440BF
:1043C0001840000010802040244024401B80000042
:1043D00002000D0011003FC0014000003C8024405D
:1043E00024402440238000001F8024402440344087
:1043F000038000003000200027C0380020000000AB
:104400001B802440244024401B8000001C0022C04C
:10441000224022401F8000000000000008400000F1
:104420000000000000000000046000000000000028
:10443000000004000A00110020804040090009002B
:104440000900090009000000000040402080110020
:104450000A00040018002000234024001800000077
:104460001F802040274029401F400000004007C017
:1044700039000F0001C0004020403FC024402440CC
:104480001B8000001F802040204020403080000022
:1044900020403FC0204020401F80000020403FC0FF
:1044A00024402E4030C0000020403FC024402E0059
:1044B000300000000F0010802040224033800200B6
:1044C00020403FC0040004003FC020402040204066
:1044D0003FC02040204000000060202020203FC03E
:1044E0002000200020403FC024400B0030C020406E
:1044F00020403FC020400040004000C03FC03C0082
:1045000003C03C003FC0000020403FC00C402300DF
:104510003FC020001F802040204020401F8000001E
:1045200020403FC024402400180000001F8021408C
:10453000214020E01FA0000020403FC02440260072
:1045400019C0004018C0244024402240318000009F
:10455000300020403FC020403000000020003F805D
:10456000004000403F80200020003E0001C00700C6
:1045700038002000380007C03C0007C038000000A9
:10458000204039C0060039C02040000020003840DB
:1045900007C0384020000000304021C0264038408D
:1045A00020C00000000000007FE04020402000000C
:1045B000000070000C00038000400000000040205C
:1045C00040207FE0000000000000200040002000AC
:1045D000000000000010001000100010001000107B
:1045E0000000000040000000000000000000028009
:1045F0000540054003C0004020003FC00440044087
:1046000003800000000003800440044006400000D6
:1046100000000380044024403FC0004000000380AD
:104620000540054003400000000004401FC0244036
:1046300024402000000002E00550055006500420F0
:1046400020403FC00440040003C00040000004407C
:1046500027C000400000000000100010041027E0F8
:104660000000000020403FC00140070004C004409B
:10467000204020403FC000400040000007C0040030
:1046800007C0040003C00000044007C00440040049
:1046900003C0004000000380044004400380000089
:1046A000041007F004500440038000000000038061
:1046B0000440045007F00010044007C0024004000A
:1046C00004000000000006400540054004C0000052
:1046D000000004001F800440004000000400078028
:1046E0000040044007C000400400070004C00180EF
:1046F00006000400060001C0070001C0060000001B
:10470000044006C0010006C0044000000410071069
:1047100004E00180060004000000044005C00640DB
:10472000044000000000000004007BE04020000086
:10473000000000000000FFF000000000000040202A
:104740007BE00400000000004000800040002000EA
:1047500020004000000000000000000000000000F9
:10476000000000000000000000001FCC000C000052
:104770000000000000000800300060000800300069
:1047800060000000022003FC1E20022003FC1E200B
:104790000220000000000E1811043FFF10840C7866
:1047A000000000000F0010840F3800C00778188444
:1047B0000078000000780F8410C411240E9800E4E3
:1047C000008400080800680070000000000000007D
:1047D0000000000000000000000007E0181820049E
:1047E00040020000000040022004181807E000000A
:1047F000000000000240024001800FF001800240F2
:10480000024000000080008000800FF800800080DF
:10481000008000000001000D000E000000000000FC
:104820000000000000000080008000800080008008
:10483000008000800000000C000C00000000000060
:104840000000000000000006001800600180060063
:1048500018002000000007F00808100410040808E1
:1048600007F000000000080408041FFC0004000416
:104870000000000000000E0C1014102410441184DD
:104880000E0C000000000C18100411041104128812
:104890000C700000000000E00320042408241FFC2A
:1048A0000024000000001F981084110411041088D7
:1048B00010700000000007F0088811041104188827
:1048C0000070000000001C00100010FC13001C0011
:1048D0001000000000000E381144108410841144B0
:1048E0000E38000000000700088C104410440888AF
:1048F00007F00000000000000000030C030C0000A3
:10490000000000000000000000010106000000009F
:104910000000000000000080014002200410080890
:1049200010040000022002200220022002200220A7
:1049300002200000000010040808041002200140BA
:104940000080000000000E001200100C106C10809F
:104950000F00000003E00C1813E4142417C4082807
:1049600007D000000004003C03C41C40074000E4E2
:10497000001C000410041FFC1104110411040E8813
:104980000070000003E00C1810041004100410085C
:104990001C10000010041FFC100410041004080870
:1049A00007F0000010041FFC1104110417C41004C8
:1049B0000818000010041FFC1104110017C010009B
:1049C0000800000003E00C181004100410441C78C8
:1049D0000040000010041FFC108400800080108440
:1049E0001FFC10040000100410041FFC100410042D
:1049F0000000000000030001100110011FFE100064
:104A00001000000010041FFC110403801464181C23
:104A10001004000010041FFC100400040004000433
:104A2000000C000010041FFC1F0000FC1F001FFCF6
:104A30001004000010041FFC0C04030000E0101818
:104A40001FFC100007F008081004100410040808E8
:104A500007F0000010041FFC1084108010801080EC
:104A60000F00000007F0081810241024101C080A7A
:104A700007F2000010041FFC1104110011C01130D6
:104A80000E0C000400000E1C11041084108410444D
:104A90001C3800001800100010041FFC1004100047
:104AA0001800000010001FF8100400040004100497
:104AB0001FF8100010001E0011E0001C0070138091
:104AC0001C0010001FC0103C00E01F0000E0103C64
:104AD0001FC000001004180C163401C001C01634A9
:104AE000180C100410001C00130400FC13041C001C
:104AF000100000000804101C1064108413041C042F
:104B0000101800000000000000007FFE400240027C
:104B100040020000000030000C0003800060001C18
:104B20000003000000004002400240027FFE00003F
:104B30000000000000000000200040004000400095
:104B4000200000000001000100010001000100013F
:104B500000010001000040004000200000000000B3
:104B600000000000000000980124014401440144B9
:104B700000FC000410001FFC0088010401040088F0
:104B800000700000000000700088010401040104AE
:104B90000088000000000070008801040104110872
:104BA0001FFC0004000000F80144014401440144DA
:104BB00000C800000000010401040FFC11041104EE
:104BC00011001800000000D601290129012901C99E
:104BD0000106000010041FFC008401000100010414
:104BE00000FC000400000104190419FC0004000486
:104BF000000000000000000300010101190119FE7E
:104C00000000000010041FFC0024004001B4010C4F
:104C1000010400000000100410041FFC0004000444
:104C200000000000010401FC0104010001FC01047A
:104C3000010000FC010401FC0084010001000104EA
:104C400000FC0004000000F8010401040104010458
:104C500000F80000010101FF008501040104008843
:104C600000700000000000700088010401040105CC
:104C700001FF00010104010401FC008401040100A2
:104C800001800000000000CC012401240124012443
:104C90000198000000000100010007F80104010470
:104CA00000000000010001F80004000400040108F5
:104CB00001FC0004010001800170000C0010016083
:104CC0000180010001F0010C003001C00030010C36
:104CD00001F0010000000104018C00740170018CDE
:104CE00001040000010101810171000E0018016042
:104CF0000180010000000184010C013401440184A1
:104D0000010C0000000000000000000001003EFC5B
:104D1000400240020000000000000000FFFF000011
:104D2000000000000000400240023EFC01000000C4
:104D30000000000000006000800080004000400093
:104D40002000200000000000000000000000000023
:104D50000000000000000000000000000000000053
:104D60000000000000000000000000000000000043
:104D7000000000000000000F80380FFE380F803860
:104D80000000000000000000000000000000000023
:104D900000000100000600000C0000380000310097
:104DA000000600000C000038000030000000000089
:104DB0000000000061800067F807F9800061800052
:104DC00061800061800061800067F807F980006100
:104DD0008000000000000000000001C0E003E0F0DF
:104DE0000630080418081FFFFE040E080787F003AA
:104DF00081E000000000000001F000060C00040447
:104E000008060C7001F9C0000E00003BE000EC1831
:104E1000070808040C180003E00000000001E0008F
:104E200007F003F818041C0804170807E1D003C0B2
:104E3000E00023B0003C0800200800001000000043
:104E40000000000100003100003200001C000000E2
:104E50000000000000000000000000000000000052
:104E60000000000000000000000000000000000042
:104E7000000000007F0001FFC00780F00C00181048
:104E800000042000020000000000002000021000CA
:104E9000040C00180780F001FFC0007F0000000034
:104EA0000000000000000000000000000000000002
:104EB0004200006600006600003C0000180003FF8E
:104EC000C0001800003C00006600006600004200C0
:104ED00000000000080000080000080000080000B2
:104EE000080001FFC00008000008000008000008DA
:104EF0000000080000000000000100003100003246
:104F000000001C0000000000000000000000000085
:104F10000000000000000000000000000800000881
:104F20000000080000080000080000080000080059
:104F30000008000008000008000000000000000059
:104F400000000000380000380000380000000000B9
:104F50000000000000000000000000000000000051
:104F600000000000000600001C000070000180002E
:104F70000E0000380000C0000700001C00003000D8
:104F800000000000000000007F8001FFE00380704F
:104F900006001804000804000806001803807001C9
:104FA000FFE0007F80000000000000000000010022
:104FB0000801000801000803FFF807FFF8000008D7
:104FC00000000800000800000000000000000001D0
:104FD000C03802C0580400980401180402180404E0
:104FE00018061C1803F81801E0F800000000000083
:104FF00000000001C0E003C0F00400080408080439
:10500000080806180803F41801E7F00001E00000A2
:1050100000000000000000000300000D000011006F
:1050200000610000810803010807FFF80FFFF80086
:1050300001080001080000000000000000E007FC7B
:10504000D0060808061008061008061008061838CA
:10505000060FF00607C0000000000000000000007E
:105060003F8001FFE0038430020818041008041098
:1050700008041008071810030FF00007C000000014
:1050800000000000000003C000070000060000064A
:1050900000F80607F806180006E000070000060002
:1050A0000000000000000001E1E003F7F00634100A
:1050B000041808041808040C08040C080616180341
:1050C000F3F001C1E000000000000000F80003FC64
:1050D000300306380402080402080402080404101D
:1050E0000308F001FFC0007F000000000000000086
:1050F0000000000000000000000000007038007098
:1051000038007038000000000000000000000000BF
:10511000000000000000000000000000000000008F
:10512000301A00301C0000000000000000000000E9
:105130000000000000000000000000080000140053
:105140000022000041000080800100400200200495
:1051500000100800080000000000000021000021ED
:10516000000021000021000021000021000021009A
:1051700000210000210000210000000000000000CC
:105180000000080008040010020020010040008018
:105190008000410000220000140000080000000010
:1051A00000000003C00004C000040000080038082C
:1051B0000F380808380810000C300007E00003C062
:1051C00000000000000000003F8000FFE00380704E
:1051D000020F1006708804C088048308047F8802C8
:1051E000C09003012000FE400000080000180001EC
:1051F000F8003E0801C20007020007E20000FE00BE
:10520000001FC80001F8000038000008040008076B
:10521000FFF807FFF8040808040808040808040851
:105220000806180803F41801E7F00001E000000088
:10523000000000003F8001FFE003807002001804BE
:10524000000804000804000804001006002007807D
:10525000C000000004000807FFF807FFF80400087A
:105260000400080400080400180200100380700104
:10527000FFE0007F8000000004000807FFF807FF40
:10528000F8040808040808040808040808043E088C
:105290000400080600180100600000000400080770
:1052A000FFF807FFF80408080408000408000408D1
:1052B00000043E000600000600000180000000001F
:1052C000000000003F8001FFE0038070060018042A
:1052D00000080402080402080203F00783F0000239
:1052E0000000020004000807FFF807FFF8040808A0
:1052F0000008000008000008000008000408080773
:10530000FFF807FFF8040008000000000000040098
:105310000804000804000807FFF807FFF804000865
:105320000400080400080000000000000000000065
:105330000006000007000001040001040001040051
:105340000307FFFE07FFFC04000004000004000048
:1053500004000807FFF807FFF8040C080018000015
:105360003E0004C7800503C80600F80400380400A6
:105370001800000804000807FFF807FFF8040008F9
:1053800000000800000800000800000800000800F5
:10539000001800006000000004000807FFF8078004
:1053A0000807FC00007FC00003F80007C000780079
:1053B00007800807FFF807FFF80400080400080743
:1053C000FFF807000803C00000E000003800001EDE
:1053D000000007000001C00400F007FFF80400000F
:1053E000000000007F8001FFE003807006001804C9
:1053F000000804000806001803003001FFE0007FE9
:105400008000000004000807FFF807FFF804040804
:10541000040400040400040400040400060C000357
:10542000F80001F000000000000000007F8001FF94
:10543000E00380700600880400880400C806003C71
:1054400003003E01FFE6007F84000000040008071F
:10545000FFF807FFF8040808040800040C00040F14
:1054600000040BC00610F003F03801E0080000084B
:1054700000000001E0F803F03006301004180804C2
:105480001808040C08040C080206180207F007812B
:10549000E00000000180000600000400000400009D
:1054A00004000807FFF807FFF804000804000004E0
:1054B000000006000001800004000007FFE007FF75
:1054C000F0040018000008000008000008000008B0
:1054D00000000804001007FFE004000004000006BC
:1054E000000007E00007FE00041FE00001F80000D4
:1054F000380001E0043E0007C00006000004000080
:1055000004000007E00007FFC0041FF80007C00701
:10551000F80007FF80043FF80007C004F800070008
:105520000004000000000004000806001807C0780E
:1055300005F1C8003E00001F800463E80780F806FC
:1055400000180400080000000400000600000780A6
:105550000007E008047C08001FF80007F80018089E
:1055600004E008070000060000040000000000013D
:1055700000080600380400F80403E8040F08047C5F
:105580000805F00807C008070018040060000000C4
:105590000000000000000000000000000000003FCC
:1055A000FFFE200002200002200002200002200056
:1055B00002000000000000000000080000070000DA
:1055C00000C0000038000006000001C000003000EC
:1055D000000E00000100000000000000000020009C
:1055E000022000022000022000022000023FFFFEF5
:1055F00000000000000000000000000000000000AB
:105600000000000000080000100000300000200032
:105610000030000010000008000000000000000042
:105620000000010000010000010000010000010075
:105630000001000001000001000001000001000065
:105640000100000100000000000000000020000038
:10565000200000100000100000000000000000000A
:1056600000000000000000000000000000F0001931
:10567000F8001B1800220800260800240800241047
:10568000003FF8001FF800000800001800000004A8
:10569000000007FFF80FFFF00018180010080020A6
:1056A00008002008003018001FF0000FC0000000A4
:1056B0000000000007C0001FF000183000200800A4
:1056C0002008002008003C08001C100000600000BA
:1056D000000000000000000007C0001FF0003818A4
:1056E00000200800200800200804101007FFF80F11
:1056F000FFF00000100000000000000000000007A4
:10570000C0001FF0001230002218002208002208FA
:10571000003208001E10000E2000000000000000F3
:10572000200000200800200801FFF803FFF80620F1
:1057300008042008042008072000030000000000DF
:1057400000000000000E000E6E001FF30031B100DB
:1057500020B10020B1003191001F13002E1E002047
:105760000E00300000000004000807FFF80FFFF8EB
:10577000001008002000002000002008003FF80072
:105780001FF80000080000000000000000000020DA
:1057900008002008002008063FF8063FF80000082F
:1057A00000000800000800000000000000000000E9
:1057B0000000000003000003002001002001002081
:1057C00003063FFE063FFC00000000000000000052
:1057D00000000004000807FFF80FFFF80001880030
:1057E0000300002FC00038F8002038002008000017
:1057F0000800000000000000000004000804000889
:1058000004000807FFF80FFFF80000080000080078
:105810000008000000000000002008003FF8003FE2
:10582000F8001008002000003FF8003FF8001008C2
:10583000002000003FF8003FF800000800000000D2
:105840002008003FF8003FF800100800100000207A
:1058500000002008003FF8001FF8000008000000CA
:105860000000000007C0000FF000183000300800F2
:105870002008002008003008001830000FF0000752
:10588000C0000000000000002001003FFF003FFFBB
:105890000010110020090020080020080030380006
:1058A0001FF0000FC00000000000000007C0001F34
:1058B000F00038180020080020080020090010110E
:1058C000001FFF003FFF0000010000000020080053
:1058D0002008002008003FF8003FF80008080010EA
:1058E0000800200800200000300000300000000008
:1058F000000000000000000C78001E1800330800B3
:1059000023080021080021880021980030F0003889
:1059100060000000000000002000002000002000C7
:1059200000FFF003FFF80020080020080020080016
:105930000030000000000000000000002000003FD8
:10594000F0007FF800001800000800000800201098
:10595000003FF8007FF00000100000000000000091
:105960002000003000003C00003F800023F00000D9
:1059700078000070002380003C0000300000200010
:10598000002000003C00003FE00023F80000E000A1
:105990002700003E00003FE00021F80001E0003E4B
:1059A0000000200000000000200800200800383817
:1059B000003E680027800003C8002CF8003838003B
:1059C0002018002008000000000000002000003027
:1059D00003003C01003F830023EC000070002380A3
:1059E000003C00002000002000000000000000003B
:1059F00000000038080020380020F80023E8002FBD
:105A000088003E08003808002018000070000000E0
:105A10000000000000000000000000000000000086
:105A200008000014001FF7FC3000062000020000F0
:105A30000000000000000000000000000000000066
:105A4000000000000000FFFFFF0000000000000059
:105A50000000000000000000000000000000200026
:105A6000023000061FF7FC001400000800000000D0
:105A7000000000000000000000000000000000180E
:105A80000000600000400000400000200000100006
:105A9000000800000400000400000C0000100000DA
:105AA00002030405060708090A0B0C0D0E0F10105F
:045AB00001020000EF
:045AB40035010008B0
:045AB80011010008D0
:0C5ABC000024F4001000000001000000B5
:04000005080019597D
:00000001FF
